:10000000A8C00000DDC00000DBC00000D9C00000B7
:10001000D7C00000D5C00000D3C00000D1C0000090
:10002000CFC00000CDC00000CBC0000090C30000D6
:10003000C7C00000C5C00000C3C00000C1C00000B0
:10004000BFC00000BDC00000BBC00000B9C00000C0
:10005000B7C00000B5C00000B3C00000B1C00000D0
:10006000AFC00000ADC00000ABC00000A9C00000E0
:10007000A7C00000A5C00000A3C00000A1C00000F0
:100080009FC000009DC000009BC0000099C0000000
:1000900097C0000095C0000005010906A101750187
:1000A0009508050719E029E715002501810295014A
:1000B0007508810395057501050819012905910247
:1000C00095017503910395067508150025650507CB
:1000D000190029658100C01201100100000008EB21
:1000E0000342200100010200010902220001010077
:1000F000C0320904000001030101000921110100BF
:1001000001223F00070581030800010403090418C8
:10011000034400650061006E002000430061006D33
:1001200000650072006100000026034C0055004687
:1001300000410020004B006500790062006F006103
:1001400000720064002000440065006D006F000034
:10015000000011241FBECFEFD4E0DEBFCDBF04B638
:1001600003FE18C08091280190912901A0912A01D5
:10017000B0912B018A5C9C4AA244BC4D59F4109268
:1001800028011092290110922A0110922B01E0E01F
:10019000F0E7099511E0A0E0B1E0EEE7F2E102C07E
:1001A00005900D92A231B107D9F711E0A2E1B1E0BB
:1001B00001C01D92A832B107E1F789D10C943D0925
:1001C0001FCF8BB18F7980648BB908958BB18F79F4
:1001D00080628BB9089580910B0190910C0100977A
:1001E00029F0019790930C0180930B0108950F93D0
:1001F0001F93CF93DF93E801D90139B180910D01AD
:1002000083FD02C08FE007C080910F0183FF02C011
:1002100020E005C089E112968C93129721E080912D
:100220000D0182FD05C0FD01E20FF11D8EE008C049
:1002300080910F0182FD06C0FD01E20FF11D83E1F7
:1002400082832F5F80910D0190910E0192FD05C078
:10025000FD01E20FF11D8DE00AC080910F01909128
:10026000100192FD06C0FD01E20FF11D81E18283C4
:100270002F5F80910D0190910E0193FD05C0FD014E
:10028000E20FF11D8BE00AC080910F0190911001E7
:1002900093FD06C0FD01E20FF11D85E182832F5F12
:1002A00080910D0180FD05C0FD01E20FF11D82E18D
:1002B00008C080910F0180FD06C0FD01E20FF11D15
:1002C0008AE082832F5F80910D0181FD05C0FD01D1
:1002D000E20FF11D8CE008C080910F0181FD06C086
:1002E000FD01E20FF11D80E182832F5F80910D01FE
:1002F00090910E0191FD05C0FD01E20FF11D88E115
:100300000AC080910F019091100191FD06C0FD017E
:10031000E20FF11D89E082832F5F80910D019091A2
:100320000E0190FD05C0FD01E20FF11D8CE10AC038
:1003300080910F019091100190FD06C0FD01E20F28
:10034000F11D87E182832F5F80910D0186FD05C03D
:10035000FD01E20FF11D8BE108C080910F0186FDC8
:1003600006C0FD01E20FF11D8DE182832F5F8091B8
:100370000D0185FD05C0FD01E20FF11D84E008C0FF
:1003800080910F0185FD06C0FD01E20FF11D84E1A2
:1003900082832F5F80910D0184FD05C0FD01E20F76
:1003A000F11D87E008C080910F0184FD06C0FD01AA
:1003B000E20FF11D86E082832F5F80910D0187FDA2
:1003C00004C0A20FB11D8AE107C080910F0187FD13
:1003D00005C0A20FB11D88E012968C9388E090E0D2
:1003E00099838883309530783093120180910D0184
:1003F00090910E019093100180930F0180E0DF91A6
:10040000CF911F910F910895F901808180FD02C065
:1004100091E001C091E281FD90648BB18F79982BBE
:100420009BB9089580E091E0E3C580E091E0A8D514
:100430009091E20094609093E20080FD02C090E20F
:1004400001C090E68BB18F79982B9BB9089584B742
:10045000877F84BF88E10FB6F89480936000109284
:1004600060000FBE8AB180668AB98BB18F798BB973
:1004700057985F9A5DD15098589A8AB186608AB928
:100480008BB1897F8BB9089505D1F89420E040E0C5
:100490005AEFCA010197F1F72F5F2038D1F78AECA4
:1004A0009CEAA2E4BCED8093280190932901A093DB
:1004B0002A01B0932B012CE088E190E00FB6F8946C
:1004C000A895809360000FBE20936000FFCF1F931C
:1004D000BEDF8BB18F7980628BB9789415E7599A1A
:1004E000812F8A95F1F7599840E050E02FEF3FEFC8
:1004F000220F331F5A9A89B190E081709070282B97
:10050000392B812F8A95F1F75A98812F8A95F1F727
:100510004F5F5F4F4031510559F7C90124E096956F
:1005200087952A95E1F790930E0180930D018070D5
:100530009370892B09F4A8DF812F8A95F1F780E069
:1005400091E064D450D4CBCFDA019330B1F0943041
:1005500028F4913041F0923079F50AC0913211F1CE
:10056000923251F524C0E7EDF0E022E130E028C0FE
:10057000E9EEF0E022E230E023C0813049F0813042
:1005800018F08230C9F40AC0EBE0F1E0849103C0B6
:10059000EFE0F1E08491282F30E012C0E9E2F1E0D1
:1005A0008491F9CFEBEFF0E029E030E009C0E8E911
:1005B000F0E02FE330E004C0E0E0F0E020E030E0E5
:1005C000ED93FC93C90108958093E9008091EB00BD
:1005D00081608093EB001092ED006093EC004093FB
:1005E000ED008091EE00881F8827881F0895809174
:1005F000200188239CF404C080911F018823B9F056
:100600008091E80082FFF8CF8091E8008B7780939B
:10061000E800089580911F01882349F08091E80047
:1006200080FFF8CF8091E8008E778093E8000895EE
:100630004091E4005091E50024E68091EC0080FFB9
:1006400005C08091E80080FF05C022C08091E800CD
:1006500082FD1EC080911F01882311F482E008955D
:10066000853011F483E008958091EB0085FF02C08E
:1006700081E008958091E4009091E500841795074A
:10068000E1F2222311F484E008952150AC01D5CF8A
:1006900080E0089556D058D0E0EEF0E0808181608F
:1006A0008083E8EDF0E080818F77808319BCE3E6FA
:1006B000F0E080818160808310921E01089541D016
:1006C00043D08091D800982F9F779093D80080686E
:1006D0008093D80084E089BD89B5826089BD09B462
:1006E00000FEFDCF8091D8008F7D8093D8001092BE
:1006F0001F0110921D0110921C0110921B0180E03D
:1007000060E042E061DF8091E1008E7F8093E10054
:100710008091E20081608093E2008091E200886035
:100720008093E2008091E0008E7F8093E000089546
:10073000E3E6F0E080818E7F808381E080931E017C
:10074000BECF1092E20008951092E10008951F922A
:100750000F920FB60F9211242F933F934F935F93F5
:100760006F937F938F939F93AF93BF93EF93FF9379
:100770008091E10080FF1CC08091E20080FF18C0E2
:100780008091E1008E7F8093E1008091E2008E7F76
:100790008093E2008091E20080618093E20080918A
:1007A000D80080628093D80019BC10921F010EDD22
:1007B0008091E10084FF2EC08091E20084FF2AC076
:1007C00084E089BD89B5826089BD09B400FEFDCF92
:1007D0008091D8008F7D8093D8008091E1008F7E3A
:1007E0008093E1008091E2008F7E8093E20080910F
:1007F000E20081608093E20080911D01882331F442
:100800008091E30087FD02C081E001C084E0809315
:100810001F01D7DC8091E10083FF22C08091E200BC
:1008200083FF1EC08091E100877F8093E10082E01A
:1008300080931F0110921D018091E1008E7F8093B3
:10084000E1008091E2008E7F8093E2008091E200DF
:1008500080618093E20080E060E042E0B5DE8BD111
:100860008091E10082FF0AC08091E20082FF06C011
:100870008091E1008B7F8093E100ADDCFF91EF91EF
:10088000BF91AF919F918F917F916F915F914F91A8
:100890003F912F910F900FBE0F901F9018950F93BF
:1008A0001F93DF93CF93CDB7DEB7AC970FB6F89415
:1008B000DEBF0FBECDBFE0E2F1E08091F100819399
:1008C00021E0E832F207C9F7ADDD8091E80083FF4F
:1008D00039C18091200130912101353009F487C060
:1008E000363040F43130C9F1313070F0333009F036
:1008F00029C133C0383009F4F7C0393009F406C1D2
:10090000363009F01FC199C0803821F0823809F0D3
:1009100019C108C090911B0180911C01882399F096
:10092000926011C08091240187708093E9008091CA
:10093000EB0090E025E0969587952A95E1F7982FB2
:1009400091701092E9008091E800877F8093E80021
:100950009093F1001092F100D2C0882319F08230F8
:1009600009F0F0C090E08F719070009721F002972D
:1009700009F0E8C00CC080912201813009F0E2C08A
:1009800010921C01333069F580931C012AC08091BC
:100990002201882331F520912401277009F4D2C067
:1009A0002093E9008091EB0080FF1BC0333021F4DD
:1009B0008091EB00806213C08091EB008061809396
:1009C000EB0081E090E002C0880F991F2A95E2F7C2
:1009D0008093EA001092EA008091EB008860809397
:1009E000EB001092E9008091E800877F8BC088239C
:1009F00009F0A8C0109122011F770FB7F8948091D9
:100A0000E800877F8093E800F2DD8091E80080FFB6
:100A1000FCCF112311F482E001C083E080931F0119
:100A20008091E3008078182B1093E3008091E3001D
:100A300080688093E3000FBF85C08058823008F043
:100A400081C0809122019091230123E08C3D920787
:100A500099F57FB7F894DE0115966EE040E050E01E
:100A600011E2E62FF0E010935700849140FF03C09D
:100A700082958F706F5F8F70282F30E08A3018F06A
:100A8000C901C79602C0C901C0968D939D934F5F5F
:100A90005F4F4431510529F77FBF8AE28B8383E0A2
:100AA0008C838091E800877F8093E800CE010396D5
:100AB0006AE270E061D012C060912401AE014F5F24
:100AC0005F4F42DDBC01009709F43CC08091E80013
:100AD000877F8093E80089819A81ACD08091E8007B
:100AE0008B778093E8002EC0803861F58091E80014
:100AF000877F8093E80080911D018093F1008091B1
:100B0000E8008E778093E80072DD1CC08823D1F462
:100B1000909122019230B0F48091E800877F809319
:100B2000E80090931D0163DD80911D01882331F45D
:100B30008091E30087FD02C081E001C084E08093E2
:100B40001F0173DC8091E80083FF0AC08091EB00F5
:100B500080628093EB008091E800877F8093E800BB
:100B6000AC960FB6F894DEBF0FBECDBFCF91DF912C
:100B70001F910F91089508959C0140912601509175
:100B800027014617570718F4F90190E03DC0611599
:100B9000710511F0AB01F8CF8091E8008E7780935A
:100BA000E80040E050E0F0CF80911F018823F1F190
:100BB0008530F1F18091E80083FF02C081E0089563
:100BC0008091E80082FD2CC08091E80080FF1CC06D
:100BD0008091F200282F30E007C081918093F100CE
:100BE000415050402F5F3F4F4115510519F02830BB
:100BF000310598F390E02830310509F491E08091B7
:100C0000E8008E778093E8004115510569F6992335
:100C100059F606C080911F01882341F0853041F0CC
:100C20008091E80082FFF6CF80E0089582E0089589
:100C300083E008959C0140912601509127014617B9
:100C4000570710F460E03FC06115710511F0AB016A
:100C5000F9CF8091E8008E778093E80040E050E083
:100C6000F1CF80911F01882309F43FC0853009F43A
:100C70003EC08091E80083FF02C081E0089580912A
:100C8000E80082FD2CC08091E80080FF1CC08091AC
:100C9000F20090E009C0F9012F5F3F4FE491E0932B
:100CA000F1004150504001964115510519F088302E
:100CB000910588F360E0089709F461E08091E8000D
:100CC0008E778093E8004115510559F6662349F661
:100CD00006C080911F01882341F0853041F080914A
:100CE000E80082FFF6CF80E0089582E0089583E077
:100CF00008959C016115710529F48091E8008B77B6
:100D00008093E800F90120C080911F01882361F1E0
:100D1000853061F18091E80083FF02C081E0089591
:100D20008091E80082FFF0CF06C08091F1008193AE
:100D30006150704021F08091F2008823B1F78091DA
:100D4000E8008B778093E80061157105E9F606C02D
:100D500080911F01882341F0853041F08091E800A7
:100D600080FFF6CF80E0089582E0089583E0089543
:100D7000DF92EF92FF920F931F93CF93DF93182F81
:100D8000092FEB017A0154DCD82E882319F5812F25
:100D9000902F9C0189011CC08091E80085FD12C044
:100DA0008091E8008E778093E800E114F10431F03F
:100DB000F7010995813011F485E00DC039DC8823F5
:100DC00039F009C0F80181918F018093F1002197DA
:100DD000209711F78D2DDF91CF911F910F91FF90EB
:100DE000EF90DF9008951F9380911F01882361F099
:100DF0001091E9001092E9008091E80083FF01C0A2
:100E00004EDD17701093E9001F9108954F925F9285
:100E10006F927F928F929F92AF92BF92CF92DF920A
:100E2000EF92FF920F931F93DF93CF9300D00F9217
:100E3000CDB7DEB77C016DB67EB680911F018430E0
:100E400009F085C0F70181818093E9008091E80075
:100E500085FF7DC05DB64EB647818DB79EB7841BBA
:100E600091090FB6F8949EBF0FBE8DBF0DB71EB788
:100E70000F5F1F4F19821B821A82C02E912EC8014C
:100E800060E070E050E0F2D1C701BE016F5F7F4FBC
:100E900040E098018E010E5F1F4FA9D9882EF701FF
:100EA00081859285892B19F4AA24BB240BC020E0EC
:100EB000F70183859485892B09F021E081E02827BB
:100EC000A22EBB24F701058116810115110511F42D
:100ED000DD2412C04A815B818C2D992DB801B0D1DF
:100EE000DD24009711F0DD24D394F7014781C80178
:100EF0006C2D792D50E0B1D18A819B81892BF9F03D
:100F0000882021F4DD2011F4AB28C9F0F701818598
:100F100092859487838781818093E90089818823E2
:100F200011F08093F1006A817B818C2D992D40E036
:100F300050E01EDF8091E8008E778093E800852DD9
:100F4000942D9C010FB6F8943EBF0FBE2DBF0FB677
:100F5000F8947EBE0FBE6DBE0F900F900F90CF9194
:100F6000DF911F910F91FF90EF90DF90CF90BF9096
:100F7000AF909F908F907F906F905F904F9008956B
:100F8000CF93DF93DC010896FC0185E0EF01199215
:100F90008A95E9F781E018968C93189784EF91E091
:100FA0001A969C938E93199711963C9111971296CD
:100FB0006D917C91139714968C91882311F440E0E5
:100FC00001C044E020E088E090E003C02F5F880F7C
:100FD000991F86179707D0F342602295207F422BF6
:100FE000832F61ECF1DA811181E0DF91CF910895D7
:100FF0006F927F928F929F92AF92BF92CF92DF9229
:10100000EF92FF920F931F93DF93CF9300D00F9235
:10101000CDB7DEB74C016DB67EB68091E80083FF98
:10102000F8C0F401808190E02091240130912501E5
:101030002817390709F0EDC080912101833009F4A8
:1010400098C0843030F4813071F0823009F0E1C012
:10105000C8C08A3009F4ADC08B3009F497C089301C
:1010600009F0D7C04FC080912001813A09F0D1C06A
:10107000ADB6FEB61B821A82809122011091230127
:101080008983F40147818DB79EB7841B91090FB600
:10109000F8949EBF0FBE8DBFCDB6DEB60894C11CBE
:1010A000D11CEC2CBD2CC60160E070E050E0DED01D
:1010B0001150C401BE016F5F7F4F412F96018E0119
:1010C0000E5F1F4F94D8F40125813681211531051B
:1010D00029F04781C901B60150E0BFD01092E90064
:1010E0008091E800877F8093E8006A817B818E2D64
:1010F0009B2D42DD8091E8008B778093E8002A2DBC
:101100003F2D31C080912001813209F082C0AEB6FE
:101110000091260110912701C0902201D090230157
:101120008DB79EB7801B910B0FB6F8949EBF0FBE74
:101130008DBFEDB6FEB60894E11CF11C8091E8006D
:10114000877F8093E800C701B801D3DD8091E80074
:101150008E778093E800DA94C4016C2D4D2D9701B1
:1011600053D9262D3A2D0FB6F8943EBF0FBE2DBF92
:1011700050C080912001813A09F04BC08091E80075
:10118000877F8093E800F40180853BC08091200137
:10119000813209F03EC08091E800877F8093E800AB
:1011A00026DA90E080912201811191E0F40190878C
:1011B00030C080912001813261F58091E800877F05
:1011C0008093E80014DA80912201909123018070CD
:1011D00076E0969587957A95E1F7F4019287818775
:1011E00018C080912001813AA1F48091E800877FA6
:1011F0008093E800F4018185928596958795969570
:1012000087958093F1008091E8008E778093E800C5
:10121000EED90FB6F8947EBE0FBE6DBE0F900F9044
:101220000F90CF91DF911F910F91FF90EF90DF9082
:10123000CF90BF90AF909F908F907F906F900895C8
:10124000FB01DC0104C08D910190801921F4415013
:101250005040C8F7881B990B0895FB01DC0102C0C0
:1012600001900D9241505040D8F70895DC0101C023
:0E1270006D9341505040E0F70895F894FFCF81
:10127E0000010800001301080000000000FFFFFF3E
:02128E00FF005F
:00000001FF
